:020000040800F2
:100000000004002065040008750400087704000857
:10001000790400087B0400087D040008000000004B
:100020000000000000000000000000007F04000845
:100030008104000800000000830400089104000807
:1000400095040008990400089D040008A104000814
:10005000A5040008A9040008AD040008B1040008C4
:10006000B5040008B9040008BD040008C104000874
:10007000C5040008C9040008CD040008D104000824
:10008000D5040008D9040008DD040008E1040008D4
:10009000E5040008E9040008ED040008F104000884
:1000A000F5040008F9040008FD0400080105000833
:1000B00005050008090500080D05000811050008E0
:1000C00015050008190500081D0500082105000890
:1000D00025050008290500082D0500083105000840
:1000E00035050008390500083D05000841050008F0
:1000F00045050008490500084D05000851050008A0
:1001000055050008590500085D050008610500084F
:1001100065050008690500086D05000871050008FF
:1001200075050008790500087D05000881050008AF
:1001300085050008890500088D050008910500085F
:1001400095050008990500089D050008A10500080F
:10015000A5050008A9050008AD050008B1050008BF
:10016000B5050008B9050008BD050008C10500086F
:10017000C5050008C9050008CD050008D10500081F
:10018000D5050008D905000880B54848006850F436
:100190007000464908604648006850F00100444934
:1001A000086000204349086041480068424908400F
:1001B0003F4908604148424908603D48006830F4C2
:1001C00080203B49086000203E49086000F005F8A7
:1001D0005FF000603C49086001BD82B000200190E2
:1001E000002000903248006850F4803030490860A8
:1001F0002F48006810F4003000900198401C0190D6
:100200000098002803D10198B0F5A04FF0D12848FC
:100210000068800302D50120009001E000200090DA
:10022000009801283ED12948006850F080502749A5
:1002300008602748006850F44040254908601D4880
:1002400000681C4908601B48006850F400401949C8
:1002500008601848006850F4A050164908601D480E
:10026000174908601248006850F080701049086013
:100270000F4800688001FBD540F205701649086000
:100280000C480068800880000A4908600948006836
:1002900050F00200074908600648006810F00C00A2
:1002A0000828F9D102B070470000000088ED00E096
:1002B0000038024008380240FFFFF6FE10300024EC
:1002C000043802400C38024008ED00E0403802409B
:1002D0000070004019544007003C024030B4002236
:1002E0000023002400252A0047E0012393400C68E6
:1002F0001C409C4240D1036803241500EDB26D0000
:10030000AC40A343036003680C791500EDB26D00A7
:10031000AC40234303600B79012B02D00B79022BF5
:100320001AD1836803241500EDB26D00AC40A343DD
:10033000836083684C791500EDB26D00AC402343B7
:100340008360436801249440A343436043688C79ED
:100350009440A4B223434360C36803241500EDB264
:100360006D00AC40A343C360C368CC791500EDB207
:100370006D00AC402343C360521C102AB5D330BC7F
:100380007047D2B2002A01D0018300E04183704758
:1003900000B583B00121012000F016F8C0200090C4
:1003A00001208DF8040003208DF8050000208DF851
:1003B000060001208DF8070000A90248FFF78EFF14
:1003C00007BD00BF00040240C9B2002905D006499C
:1003D000096808430449086005E00349096831EAEF
:1003E0000000014908607047303802404EF68851DD
:1003F000CEF20001086840F4700008604FF0007011
:10040000E1EE100A7047000000F00BF8002801D060
:10041000C046C0460020C046C04600F005F800F0C7
:100420000FF801207047000080B5FFF7B1FF0122EF
:1004300040210248FFF7A5FF002002BD0000024056
:1004400000F000B80746384600F002F8FBE700006D
:1004500080B5C046C046024A11001820ABBEFBE77B
:100460002600020001488047014800478901000832
:10047000850400087047FEE7FEE7FEE7FEE77047E9
:1004800070477047C046C046FFF7B0FFFFF7BCFF9C
:10049000FFF7FEBFFFF7FEBFFFF7FEBFFFF7FEBF90
:1004A000FFF7FEBFFFF7FEBFFFF7FEBFFFF7FEBF80
:1004B000FFF7FEBFFFF7FEBFFFF7FEBFFFF7FEBF70
:1004C000FFF7FEBFFFF7FEBFFFF7FEBFFFF7FEBF60
:1004D000FFF7FEBFFFF7FEBFFFF7FEBFFFF7FEBF50
:1004E000FFF7FEBFFFF7FEBFFFF7FEBFFFF7FEBF40
:1004F000FFF7FEBFFFF7FEBFFFF7FEBFFFF7FEBF30
:10050000FFF7FEBFFFF7FEBFFFF7FEBFFFF7FEBF1F
:10051000FFF7FEBFFFF7FEBFFFF7FEBFFFF7FEBF0F
:10052000FFF7FEBFFFF7FEBFFFF7FEBFFFF7FEBFFF
:10053000FFF7FEBFFFF7FEBFFFF7FEBFFFF7FEBFEF
:10054000FFF7FEBFFFF7FEBFFFF7FEBFFFF7FEBFDF
:10055000FFF7FEBFFFF7FEBFFFF7FEBFFFF7FEBFCF
:10056000FFF7FEBFFFF7FEBFFFF7FEBFFFF7FEBFBF
:10057000FFF7FEBFFFF7FEBFFFF7FEBFFFF7FEBFAF
:10058000FFF7FEBFFFF7FEBFFFF7FEBFFFF7FEBF9F
:10059000FFF7FEBFFFF7FEBFFFF7FEBFFFF7FEBF8F
:1005A000FFF7FEBFFFF7FEBFFFF7FEBFFFF7FEBF7F
:1005B000FFF7FEBFFFF7FEBFFFF7FEBFFFF7FEBF6F
:1005C000FFF7FEBFFFF7FEBFFFF7FEBFFFF7FEBF5F
:0C05D000FFF7FEBFFFF7FEBFFFF7FEBF06
:040000050800048566
:00000001FF
